{
  "contractName": "Evoting",
  "abi": [
    {
      "constant": false,
      "inputs": [
        {
          "internalType": "string",
          "name": "_name",
          "type": "string"
        }
      ],
      "name": "addCandidate",
      "outputs": [],
      "payable": false,
      "stateMutability": "nonpayable",
      "type": "function"
    },
    {
      "constant": false,
      "inputs": [
        {
          "internalType": "uint256",
          "name": "_candidateID",
          "type": "uint256"
        }
      ],
      "name": "vote",
      "outputs": [],
      "payable": false,
      "stateMutability": "nonpayable",
      "type": "function"
    },
    {
      "constant": true,
      "inputs": [
        {
          "internalType": "uint256",
          "name": "_id",
          "type": "uint256"
        }
      ],
      "name": "Details",
      "outputs": [
        {
          "internalType": "string",
          "name": "",
          "type": "string"
        },
        {
          "internalType": "uint256",
          "name": "",
          "type": "uint256"
        }
      ],
      "payable": false,
      "stateMutability": "view",
      "type": "function"
    },
    {
      "constant": true,
      "inputs": [],
      "name": "totalVoters",
      "outputs": [
        {
          "internalType": "uint256",
          "name": "",
          "type": "uint256"
        }
      ],
      "payable": false,
      "stateMutability": "view",
      "type": "function"
    },
    {
      "constant": true,
      "inputs": [
        {
          "internalType": "uint256",
          "name": "_candidateID",
          "type": "uint256"
        }
      ],
      "name": "getResult",
      "outputs": [
        {
          "internalType": "uint256",
          "name": "",
          "type": "uint256"
        }
      ],
      "payable": false,
      "stateMutability": "view",
      "type": "function"
    },
    {
      "constant": true,
      "inputs": [],
      "name": "sender",
      "outputs": [
        {
          "internalType": "address",
          "name": "",
          "type": "address"
        }
      ],
      "payable": false,
      "stateMutability": "view",
      "type": "function"
    },
    {
      "constant": true,
      "inputs": [
        {
          "internalType": "uint256",
          "name": "_candidateID",
          "type": "uint256"
        }
      ],
      "name": "getName",
      "outputs": [
        {
          "internalType": "string",
          "name": "",
          "type": "string"
        }
      ],
      "payable": false,
      "stateMutability": "view",
      "type": "function"
    },
    {
      "constant": false,
      "inputs": [],
      "name": "resetCandidate",
      "outputs": [],
      "payable": false,
      "stateMutability": "nonpayable",
      "type": "function"
    }
  ],
  "bytecode": "0x608060405234801561001057600080fd5b5061089b806100206000396000f3fe608060405234801561001057600080fd5b50600436106100885760003560e01c806367e404ce1161005b57806367e404ce1461019e5780636b8ff574146101e8578063995e43391461028f578063b6c748d9146102d157610088565b80630121b93f1461008d57806345c8014b146100bb578063462e91ec146100c55780635f5300ff14610180575b600080fd5b6100b9600480360360208110156100a357600080fd5b810190808035906020019092919050505061037f565b005b6100c36104df565b005b61017e600480360360208110156100db57600080fd5b81019080803590602001906401000000008111156100f857600080fd5b82018360208201111561010a57600080fd5b8035906020019184600183028401116401000000008311171561012c57600080fd5b91908080601f016020809104026020016040519081016040528093929190818152602001838380828437600081840152601f19601f82011690508083019250505050505050919291929050505061053d565b005b6101886105b9565b6040518082815260200191505060405180910390f35b6101a66105c3565b604051808273ffffffffffffffffffffffffffffffffffffffff1673ffffffffffffffffffffffffffffffffffffffff16815260200191505060405180910390f35b610214600480360360208110156101fe57600080fd5b81019080803590602001909291905050506105cb565b6040518080602001828103825283818151815260200191508051906020019080838360005b83811015610254578082015181840152602081019050610239565b50505050905090810190601f1680156102815780820380516001836020036101000a031916815260200191505b509250505060405180910390f35b6102bb600480360360208110156102a557600080fd5b8101908080359060200190929190505050610683565b6040518082815260200191505060405180910390f35b6102fd600480360360208110156102e757600080fd5b81019080803590602001909291905050506106a3565b6040518080602001838152602001828103825284818151815260200191508051906020019080838360005b83811015610343578082015181840152602081019050610328565b50505050905090810190601f1680156103705780820380516001836020036101000a031916815260200191505b50935050505060405180910390f35b600015156000803373ffffffffffffffffffffffffffffffffffffffff1673ffffffffffffffffffffffffffffffffffffffff16815260200190815260200160002060009054906101000a900460ff16151514610444576040517f08c379a000000000000000000000000000000000000000000000000000000000815260040180806020018281038252601d8152602001807f536f7272792120596f75206861766520616c726561647920766f74656400000081525060200191505060405180910390fd5b60008111801561045657506002548111155b61045f57600080fd5b600160008281526020019081526020016000206002016000815480929190600101919050555060016000803373ffffffffffffffffffffffffffffffffffffffff1673ffffffffffffffffffffffffffffffffffffffff16815260200190815260200160002060006101000a81548160ff02191690831515021790555050565b6000600190505b6002548111610532576001600082815260200190815260200160002060008082016000905560018201600061051b9190610779565b6002820160009055505080806001019150506104e6565b506000600281905550565b6002600081548092919060010191905055506040518060600160405280600254815260200182815260200160008152506001600060025481526020019081526020016000206000820151816000015560208201518160010190805190602001906105a89291906107c1565b506040820151816002015590505050565b6000600254905090565b600033905090565b6060600160008381526020019081526020016000206001018054600181600116156101000203166002900480601f0160208091040260200160405190810160405280929190818152602001828054600181600116156101000203166002900480156106775780601f1061064c57610100808354040283529160200191610677565b820191906000526020600020905b81548152906001019060200180831161065a57829003601f168201915b50505050509050919050565b600060016000838152602001908152602001600020600201549050919050565b60606000600160008481526020019081526020016000206001016001600085815260200190815260200160002060020154818054600181600116156101000203166002900480601f0160208091040260200160405190810160405280929190818152602001828054600181600116156101000203166002900480156107695780601f1061073e57610100808354040283529160200191610769565b820191906000526020600020905b81548152906001019060200180831161074c57829003601f168201915b5050505050915091509150915091565b50805460018160011615610100020316600290046000825580601f1061079f57506107be565b601f0160209004906000526020600020908101906107bd9190610841565b5b50565b828054600181600116156101000203166002900490600052602060002090601f016020900481019282601f1061080257805160ff1916838001178555610830565b82800160010185558215610830579182015b8281111561082f578251825591602001919060010190610814565b5b50905061083d9190610841565b5090565b61086391905b8082111561085f576000816000905550600101610847565b5090565b9056fea265627a7a72315820b4b8ff765dda9ac0607a9a32c58e652e587d1e3bda246ba04bfe186d461adc0764736f6c63430005100032",
  "source": "pragma solidity >=0.5.16;\n\n\ncontract Evoting{\n\t//store candidates\n\tstruct Candidate{\n\t\tuint id;\n\t\tstring name;\n\t\tuint voteCount;\n\t}\n\n\tmapping(address => bool) private votedList;\n\tmapping(uint => Candidate) private candidate;\n\n\tuint private candidateCount;\n    \n\n    modifier OnlyIfNotVoted{\n        require(\n        \tvotedList[msg.sender] == false,\n        \t\"Sorry! You have already voted\"\n        \t);\t\t\t\t// you can use throw instead;\n        \t_;\n    }\n\t\n\t// function addcandidate() public\n\t// \t{\n\t// \t\taddCandidate(\"Sunil Khadka\");\n\t// \t\taddCandidate(\"Doleshor Khadka\");\n\t// \t}\n\tfunction addCandidate\n\t\t(\n\t\t\tstring memory _name\n\t\t) \n\t\t\tpublic \n\t\t{\n\t\t\tcandidateCount ++;\n\t\t\tcandidate[candidateCount] = Candidate(candidateCount,_name,0);\n\t\t\t\n\t\t}\t\n\n\tfunction vote(uint _candidateID) public  OnlyIfNotVoted {\n\t\t// Checking wether the voter has already voted or not .\n\t\t// require(\n        // \tvotedList[msg.sender] == false //or you can also use !votedList[msg.sender] for condition\n        // \t//\"Sorry! You have already voted\"\n        // ); \n\n        // Checking the candidate is a valid\n        require(\n        \t_candidateID >0 && _candidateID <=candidateCount\n        \t//\"Invalid candidate\"\n        );\n\n\t\t// update candidate vote count\n\t\tcandidate[_candidateID].voteCount++;\n\t\tvotedList[msg.sender] = true;\n\t}\n\tfunction Details(uint _id) public view returns(string memory , uint){\n\t\treturn (candidate[_id].name ,candidate[_id].voteCount);\n\t}\n\tfunction totalVoters() public view returns(uint){\n\t\treturn candidateCount;\n\t} \n\tfunction getResult(uint _candidateID) public view returns(uint){ \n\t\treturn (candidate[_candidateID].voteCount);\n\t}\n\tfunction sender() public view returns(address){\n\t\treturn (msg.sender);\n\t}\n\tfunction getName(uint _candidateID) public view returns(string memory ){\n\t\treturn (candidate[_candidateID].name);\n\t}\n\tfunction resetCandidate() public {\n\t\tfor (uint x=1;x<=candidateCount;x++){\n\t\t\tdelete candidate[x];\n\t\t}\n\t\tcandidateCount = 0;\n\t}\n\t\t\n}",
  "sourcePath": "/home/bing0/Documents/eVoting/contracts/Echunab.sol",
  "compiler": {
    "name": "solc",
    "version": "0.5.16+commit.9c3226ce.Emscripten.clang"
  },
  "schemaVersion": "3.4.5",
  "updatedAt": "2022-02-25T14:55:07.516Z",
  "networkType": "ethereum",
  "devdoc": {
    "methods": {}
  },
  "userdoc": {
    "methods": {}
  }
}