{
  "contractName": "Evoting",
  "abi": [
    {
      "inputs": [],
      "payable": false,
      "stateMutability": "nonpayable",
      "type": "constructor"
    },
    {
      "constant": true,
      "inputs": [
        {
          "internalType": "uint256",
          "name": "",
          "type": "uint256"
        }
      ],
      "name": "candidate",
      "outputs": [
        {
          "internalType": "uint256",
          "name": "id",
          "type": "uint256"
        },
        {
          "internalType": "string",
          "name": "name",
          "type": "string"
        },
        {
          "internalType": "uint256",
          "name": "voteCount",
          "type": "uint256"
        }
      ],
      "payable": false,
      "stateMutability": "view",
      "type": "function"
    },
    {
      "constant": true,
      "inputs": [],
      "name": "candidateCount",
      "outputs": [
        {
          "internalType": "uint256",
          "name": "",
          "type": "uint256"
        }
      ],
      "payable": false,
      "stateMutability": "view",
      "type": "function"
    },
    {
      "constant": true,
      "inputs": [
        {
          "internalType": "address",
          "name": "",
          "type": "address"
        }
      ],
      "name": "votedList",
      "outputs": [
        {
          "internalType": "bool",
          "name": "",
          "type": "bool"
        }
      ],
      "payable": false,
      "stateMutability": "view",
      "type": "function"
    },
    {
      "constant": false,
      "inputs": [
        {
          "internalType": "uint256",
          "name": "_candidateID",
          "type": "uint256"
        }
      ],
      "name": "vote",
      "outputs": [],
      "payable": false,
      "stateMutability": "nonpayable",
      "type": "function"
    }
  ],
  "bytecode": "0x608060405234801561001057600080fd5b506100556040518060400160405280600c81526020017f53756e696c204b6861646b61000000000000000000000000000000000000000081525061009e60201b60201c565b6100996040518060400160405280601081526020017f537572616b73687961204b6861646b610000000000000000000000000000000081525061009e60201b60201c565b6101bf565b60026000815480929190600101919050555060405180606001604052806002548152602001828152602001600081525060016000600254815260200190815260200160002060008201518160000155602082015181600101908051906020019061010992919061011a565b506040820151816002015590505050565b828054600181600116156101000203166002900490600052602060002090601f016020900481019282601f1061015b57805160ff1916838001178555610189565b82800160010185558215610189579182015b8281111561018857825182559160200191906001019061016d565b5b509050610196919061019a565b5090565b6101bc91905b808211156101b85760008160009055506001016101a0565b5090565b90565b6103c2806101ce6000396000f3fe608060405234801561001057600080fd5b506004361061004c5760003560e01c80630121b93f146100515780631de43c4b1461007f5780635f49cf9c14610134578063a9a981a314610190575b600080fd5b61007d6004803603602081101561006757600080fd5b81019080803590602001909291905050506101ae565b005b6100ab6004803603602081101561009557600080fd5b81019080803590602001909291905050506102a5565b6040518084815260200180602001838152602001828103825284818151815260200191508051906020019080838360005b838110156100f75780820151818401526020810190506100dc565b50505050905090810190601f1680156101245780820380516001836020036101000a031916815260200191505b5094505050505060405180910390f35b6101766004803603602081101561014a57600080fd5b81019080803573ffffffffffffffffffffffffffffffffffffffff169060200190929190505050610367565b604051808215151515815260200191505060405180910390f35b610198610387565b6040518082815260200191505060405180910390f35b600015156000803373ffffffffffffffffffffffffffffffffffffffff1673ffffffffffffffffffffffffffffffffffffffff16815260200190815260200160002060009054906101000a900460ff1615151461020a57600080fd5b60008111801561021c57506002548111155b61022557600080fd5b600160008281526020019081526020016000206002016000815480929190600101919050555060016000803373ffffffffffffffffffffffffffffffffffffffff1673ffffffffffffffffffffffffffffffffffffffff16815260200190815260200160002060006101000a81548160ff02191690831515021790555050565b6001602052806000526040600020600091509050806000015490806001018054600181600116156101000203166002900480601f0160208091040260200160405190810160405280929190818152602001828054600181600116156101000203166002900480156103575780601f1061032c57610100808354040283529160200191610357565b820191906000526020600020905b81548152906001019060200180831161033a57829003601f168201915b5050505050908060020154905083565b60006020528060005260406000206000915054906101000a900460ff1681565b6002548156fea265627a7a72315820b3ebd496ec6126b686253d5be8e945cee1b45c36ef9e9ae13e9b046527683e3964736f6c63430005100032",
  "source": "pragma solidity 0.5.16;\n\n\ncontract Evoting{\n\t//store candidates\n\tstruct Candidate{\n\t\tuint id;\n\t\tstring name;\n\t\tuint voteCount;\n\t}\n\n\tmapping(address => bool) public votedList;\n\tmapping(uint => Candidate) public candidate;\n\n\tuint public candidateCount;\n    \n    // modifier OnlyIfNotVoted{\n    //     require(\n    //     \tvotedList[msg.sender] == false,\n    //     \t\"Sorry! You have already voted\"\n    //     \t);\n    //     \t_;\n    // }\n\tconstructor() \n\t\tpublic\n\t\t{\n\t\t\taddCandidate(\"Sunil Khadka\");\n\t\t\taddCandidate(\"Surakshya Khadka\");\n\t\t}\n\tfunction addCandidate\n\t\t(\n\t\t\tstring memory _name\n\t\t) \n\t\t\tprivate \n\t\t{\n\t\t\tcandidateCount ++;\n\t\t\tcandidate[candidateCount] = Candidate(candidateCount,_name,0);\n\t\t}\t\n\n\tfunction vote(uint _candidateID) public {\n\t\t// Checking wether the voter has already voted or not .\n\t\trequire(\n        \tvotedList[msg.sender] == false //or you can also use !votedList[msg.sender] foe condition\n        \t//\"Sorry! You have already voted\"\n        ); \n\n        // Checking the candidate is a valid\n        require(\n        \t_candidateID >0 && _candidateID <=candidateCount\n        \t//\"Invalid candidate\"\n        );\n\n\t\t// update candidate vote count\n\t\tcandidate[_candidateID].voteCount ++;\n\t\tvotedList[msg.sender] = true;\n\t}\n}",
  "sourcePath": "/home/Bing0/Documents/7thSemProject/EvotingWithBlockCHain/contracts/Evoting.sol",
  "compiler": {
    "name": "solc",
    "version": "0.5.16+commit.9c3226ce.Emscripten.clang"
  },
  "schemaVersion": "3.4.1",
  "updatedAt": "2021-05-29T19:31:32.590Z",
  "networkType": "ethereum",
  "devdoc": {
    "methods": {}
  },
  "userdoc": {
    "methods": {}
  }
}